:100000000EC015C014C013C012C011C010C00FC064
:100010000FC00DC00CC00BC00AC009C008C011241D
:100020001FBECFE5D2E0DEBFCDBF33D036C0E8CFB4
:100030001F920F920FB60F9211248F9385B1809566
:1000400089BD369A8F910F900FBE0F901F90189513
:10005000B89A8AB583608ABD8AB580688ABD8AB538
:100060008F7B8ABD83B7897F83BF83B7816083BF5E
:1000700008953E983D9A87B1837F87B987B18360A1
:1000800087B986B1876086B986B1886886B9369A9D
:0E0090000895DEDFEEDF7894FFCFF894FFCF07
:00000001FF
